:100000007CEF00F0949C8B9C080E016E00D00000E9
:10001000018E0ED0019E1132D8B08B8CD8A08B9C53
:10002000018C06D0019C012EF6D700D000008B8CED
:100030007C0EE96EE92EFED7000001BEEBD701BCB5
:10004000F1D71200EACF10F0E9CF0FF00938F0092C
:100050000B6E0B26E20F0C6E320F0E6E09500F0B5B
:100060000C260C260E26E90F0D6E0D260D260838DF
:100070000F0B0D260E260D360E360E1E0E360850B0
:100080000F0B0E260B36070E0A6E0A0E0D060E26F5
:10009000FDE30C060D26FDE30B060C26FDE30A0628
:1000A0000B26FDE3EA6A0A0EE96E070E0F140F9C99
:1000B000E9260E0EE95CD8B40F8CEF50006E08E113
:1000C0000FBC06D00FB813D00FB602D0200E03D04D
:1000D0000F860F98300E0026EACF09F0E9CF08F01E
:1000E00000C011F08FDF09C0EAFF08C0E9FFEE5041
:1000F0000FACDFD7ACEF00F0F86AD09EEA6AE96A8D
:10010000949C8B8C000E7E6EC198C19A7F50E00B40
:100110007F6E799A79987A6A7B6AD76AD66AB00EC6
:10012000D56ED650066ED7CF07F00650045C03E1BB
:100130000750055C11E007C005F006C004F00A0E88
:10014000116E60DF0D0E116E5DDF100EE96E07C0DF
:0C01500009F006C008F076D7E4D70300E1
:020000040030CA
:0E00000000C21E1E008F81000FC00FE00F40D7
:00000001FF
;PIC18F45K20
;CRC=4D73  CREATED="01-ago-13 09:41"
