:0400000096EF00F087
:08000800046ED8CF05F0E0CF33
:1000100006F00001E9CF0CF0EACF07F0E1CF08F0DD
:10002000E2CF09F0D9CF0AF0DACF0BF0F3CF12F01C
:10003000F4CF13F0FACF14F0F5CF15F0F6CF16F099
:10004000F7CF17F000C00EF001C00FF002C010F0A3
:1000500003C011F0F2AA30EF00F0F2B457EF00F055
:100060000EC000F00FC001F010C002F011C003F08C
:100070000CC0E9FF07C0EAFF078E08C0E1FF09C016
:10008000E2FF0AC0D9FF0BC0DAFF12C0F3FF13C0B2
:10009000F4FF14C0FAFF15C0F5FF16C0F6FF17C035
:1000A000F7FF045006C0E0FF05C0D8FF1000F2942F
:1000B00094968B76F29430EF00F048656C6C6F008C
:1000C0000A576F726C640000949C8B9C080E016E42
:1000D00000D00000018E0ED0019E1B32D8B08B8C58
:1000E000D8A08B9C018C06D0019C012EF6D700D0A5
:1000F00000008B8CD20EE96EE92EFED700D00000F6
:1001000001BEEAD701BCF0D790EF00F00900F5522C
:100110000CE0F6CF19F0F7CF1AF0F5CF1BF0D4D7DB
:1001200019C0F6FF1AC0F7FFF1D71200F86AD09E87
:10013000078EEA6AE96A949C8B8CC180C182C18473
:10014000C196F294880ED56EF28AC00EF212BA0EE3
:10015000F66E000EF76EDADFC00EF66E000EF76E6A
:0A016000D5DFFFD7000E016E03008B
:020000040030CA
:0E00000000220E0E000181000FC00FE00F4025
:00000001FF
;PIC18F252
;CRC=A2CB  CREATED="19-abr-13 15:11"
