:1000000083EF00F0949C8B9C080E016E00D00000E2
:10001000018E0ED0019E1232D8B08B8CD8A08B9C52
:10002000018C06D0019C012EF6D700D000008B8CED
:10003000020E006EE96AE92EFED7002EFBD7230ED2
:10004000E96EE92EFED7000001BEE4D701BCEAD775
:100050001200EACF11F0E9CF10F00A38F0090C6E67
:100060000C26E20F0D6E320F0F6E0A500F0B0D268D
:100070000D260F26E90F0E6E0E260E2609380F0BE1
:100080000E260F260E360F360F1E0F3609500F0B99
:100090000F260C36070E0B6E0A0E0E060F26FDE31A
:1000A0000D060E26FDE30C060D26FDE30B060C26C1
:1000B000FDE3EA6A0B0EE96E070E1014109CE926A8
:1000C0000F0EE95CD8B4108CEF50006E08E110BC44
:1000D00006D010B813D010B602D0200E03D0108670
:1000E0001098300E0026EACF0AF0E9CF09F000C0E0
:1000F00012F088DF0AC0EAFF09C0E9FFEE5010AC39
:10010000DFD7AEEF00F0F86AD09EEA6AE96A949C05
:100110008B8C000E7E6EC198C19A7F50E00B7F6E73
:10012000799A79987A6A7B6A870ECD6ECE50056E81
:10013000CFCF06F00750055C03E10850065C0EE0E7
:1001400006C008F005C007F00C0E126E5BDF100E43
:10015000E96E06C00AF005C009F07BD7E7D7000EAC
:04016000016E030029
:020000040030CA
:0E00000000C61E1E008F81000FC00FE00F40D3
:00000001FF
;PIC18F45K20
;CRC=0668  CREATED="05-mar-14 15:34"
