:100000009FEF00F0949C8B9C080E016E00D00000C6
:10001000018E0ED0019E1132D8B08B8CD8A08B9C53
:10002000018C06D0019C012EF6D700D000008B8CED
:10003000020E006EE96AE92EFED7002EFBD7230ED2
:10004000E96EE92EFED7000001BEE4D701BCEAD775
:100050001200EACF10F0E9CF0FF009AE08D00F8EF2
:100060000FA80F2A081E091E082AD8B4092A093821
:10007000F0090B6E0B26E20F0C6E320F0E6E09505C
:100080000F0B0C260C260E26E90F0D6E0D260D26E5
:1000900008380F0B0D260E260D360E360E1E0E36A8
:1000A00008500F0B0E260B36070E0A6E0A0E0D06B1
:1000B0000E26FDE30C060D26FDE30B060C26FDE3E4
:1000C0000A060B26FDE3EA6A0A0EE96E070E0F1414
:1000D0000F9CE9060F1407E10FB8E92A0FB803D007
:1000E000200E006E1CD0E9260E0EE95CD8B40F8CF1
:1000F000EF50006E08E10FBC06D00FB81BD00FB652
:1001000002D0200E0BD00FAE06D02D0E006EED509B
:100110000F9C0F9E04D00F860F98300E0026EACF5A
:1001200009F0E9CF08F000C011F06CDF09C0EAFF68
:1001300008C0E9FFEE500FACD7D7C2EF00F0F86A65
:10014000D09EEA6AE96A949C8B8CC180C182C1848A
:10015000C196870ECD6ECF6ACE6ACE50046ECFCFD9
:1001600005F00650045C03E10750055C11E005C092
:1001700007F004C006F0100EE96E05C009F004C0D7
:1001800008F067D70A0E116E3DDF0D0E116E3ADFD3
:08019000E4D7000E016E03002C
:020000040030CA
:0E00000000260E0E000181000FC00FE00F4021
:00000001FF
;PIC18F252
;CRC=E3D8  CREATED="18-set-14 16:55"
