:1000000001308A001E290000FF00030E8301A100B9
:100010007F08A0000A08A7008A01A00E0408A20019
:100020007708A3007808A4007908A5007A08A6003C
:10003000831383128C308400001C20280C18612844
:100040008B1E24280B194A28220884002308F70055
:100050002408F8002508F9002608FA0027088A0075
:10006000210E8300FF0E7F0E09000A108A100A116C
:1000700082074D34653473347434723465342C34EF
:100080004534733463347234613476346F340A34F3
:100090000D3400340B1183160610013083128606CE
:1000A00028195C28281E5828A90A0319AA0A5C28BE
:1000B00029080319AA03A9030430A8060B118A1101
:1000C00024280C107F308F00FF308E00831686109E
:1000D000023083128606A8197728A81E7328AB0A57
:1000E0000319AC0A77282B080319AC03AB030830BB
:1000F000A8060C108A1124288316061183120611F3
:100100000830F80083280000F8179428F813BB0C77
:1001100003180615031C0611781794287813F80B9A
:1001200087289228000006151C308400840B96282E
:100130009928F81B8628781B8E280800BA01040825
:10014000B9003A10831B3A14B31FAE28B917391EF1
:10015000B90AB209B309B20A0319B30A330EF03867
:10016000B500B507E23EB600323EB80033080F399D
:10017000B607B607B807E93EB700B707B707320EAC
:100180000F39B707B807B70DB80DB809B80D320861
:100190000F39B807B50D0730B4000A30B807B703F8
:1001A000031CCE28B707B603031CD228B607B50335
:1001B000031CD628B507B403031CDA2834308400A6
:1001C000831307303905391384033905031DEF28DC
:1001D000391A840A391AEF282030F7000C298407CD
:1001E00038300402031939170008F700031D0029ED
:1001F000391B0029391A1A29B919002920300B296D
:10020000B91F08292D30F70084033913B9130C29BD
:10021000B91539123030F707B3010408B2003310B2
:10022000831B33147708BB007C20320884008313BF
:1002300033188317840A391FF028080084018313B8
:100240001F30830583168E1506118312061507309D
:100250009F003110B1103111B111810183160108D5
:10026000C039063881007F3083128F00FF308E0046
:10027000853090000B110C10C0308B04B201320895
:100280003520B20AF700BB007C2010303202031D7B
:100290003F298316061083120610831686108312D8
:1002A0008610831605148312311005183114831635
:1002B00085148312B1108518B114831605158312A5
:1002C000311105193115831685158312B111851960
:1002D000B115003031180130B3000030B1180130D1
:1002E000330603197D29281C7C292810281231186F
:1002F00028160B1181018B168129281881292814B1
:100300008B12003031190130B3000030B1190130C7
:10031000330603199A29A81C9929A810A812311983
:10032000A8160C107F308F00FF308E0083160C143F
:100330008312A029A818A029A81483160C108312D0
:100340002D082902031DB0292E082A02031DB029F9
:100350002F082B02031DB02930082C020319D529C0
:100360002A08AE002908AD002C08B0002B08AF0009
:100370000230F700F70BBA29BD29000010308400C5
:100380002A08B3002908B2009E202C30BB007C2034
:10039000103084002C08B3002B08B2009E200A30D5
:1003A000BB007C200D30BB007C2051290030F800C0
:0203B0006300E8
:02400E00183F59
:00000001FF
;PIC16F628A
;CRC=C1F7  CREATED="30-set-14 10:04"
